{
  "contractName": "Campaign",
  "abi": [
    {
      "inputs": [
        {
          "internalType": "uint256",
          "name": "min",
          "type": "uint256"
        },
        {
          "internalType": "address",
          "name": "campaignManager",
          "type": "address"
        }
      ],
      "stateMutability": "nonpayable",
      "type": "constructor"
    },
    {
      "inputs": [
        {
          "internalType": "address",
          "name": "",
          "type": "address"
        }
      ],
      "name": "approvers",
      "outputs": [
        {
          "internalType": "bool",
          "name": "",
          "type": "bool"
        }
      ],
      "stateMutability": "view",
      "type": "function"
    },
    {
      "inputs": [],
      "name": "approversCount",
      "outputs": [
        {
          "internalType": "uint256",
          "name": "",
          "type": "uint256"
        }
      ],
      "stateMutability": "view",
      "type": "function"
    },
    {
      "inputs": [],
      "name": "manager",
      "outputs": [
        {
          "internalType": "address",
          "name": "",
          "type": "address"
        }
      ],
      "stateMutability": "view",
      "type": "function"
    },
    {
      "inputs": [],
      "name": "minimumContribution",
      "outputs": [
        {
          "internalType": "uint256",
          "name": "",
          "type": "uint256"
        }
      ],
      "stateMutability": "view",
      "type": "function"
    },
    {
      "inputs": [
        {
          "internalType": "uint256",
          "name": "",
          "type": "uint256"
        }
      ],
      "name": "requests",
      "outputs": [
        {
          "internalType": "string",
          "name": "description",
          "type": "string"
        },
        {
          "internalType": "uint256",
          "name": "value",
          "type": "uint256"
        },
        {
          "internalType": "address payable",
          "name": "recipient",
          "type": "address"
        },
        {
          "internalType": "bool",
          "name": "complete",
          "type": "bool"
        },
        {
          "internalType": "uint256",
          "name": "approvalCount",
          "type": "uint256"
        }
      ],
      "stateMutability": "view",
      "type": "function"
    },
    {
      "inputs": [],
      "name": "contribute",
      "outputs": [],
      "stateMutability": "payable",
      "type": "function"
    },
    {
      "inputs": [
        {
          "internalType": "string",
          "name": "description",
          "type": "string"
        },
        {
          "internalType": "uint256",
          "name": "value",
          "type": "uint256"
        },
        {
          "internalType": "address payable",
          "name": "recipient",
          "type": "address"
        }
      ],
      "name": "createRequest",
      "outputs": [],
      "stateMutability": "nonpayable",
      "type": "function"
    },
    {
      "inputs": [
        {
          "internalType": "uint256",
          "name": "index",
          "type": "uint256"
        }
      ],
      "name": "approveRequest",
      "outputs": [],
      "stateMutability": "nonpayable",
      "type": "function"
    },
    {
      "inputs": [
        {
          "internalType": "uint256",
          "name": "index",
          "type": "uint256"
        }
      ],
      "name": "finalizeRequest",
      "outputs": [],
      "stateMutability": "payable",
      "type": "function"
    },
    {
      "inputs": [],
      "name": "getSummary",
      "outputs": [
        {
          "internalType": "uint256",
          "name": "",
          "type": "uint256"
        },
        {
          "internalType": "uint256",
          "name": "",
          "type": "uint256"
        },
        {
          "internalType": "uint256",
          "name": "",
          "type": "uint256"
        },
        {
          "internalType": "uint256",
          "name": "",
          "type": "uint256"
        },
        {
          "internalType": "address",
          "name": "",
          "type": "address"
        }
      ],
      "stateMutability": "view",
      "type": "function"
    }
  ],
  "bytecode": "0x60806040523480156200001157600080fd5b50604051620010343803806200103483398181016040528101906200003791906200012b565b806000806101000a81548173ffffffffffffffffffffffffffffffffffffffff021916908373ffffffffffffffffffffffffffffffffffffffff16021790555081600181905550505062000172565b600080fd5b6000819050919050565b620000a0816200008b565b8114620000ac57600080fd5b50565b600081519050620000c08162000095565b92915050565b600073ffffffffffffffffffffffffffffffffffffffff82169050919050565b6000620000f382620000c6565b9050919050565b6200010581620000e6565b81146200011157600080fd5b50565b6000815190506200012581620000fa565b92915050565b6000806040838503121562000145576200014462000086565b5b60006200015585828601620000af565b9250506020620001688582860162000114565b9150509250929050565b610eb280620001826000396000f3fe6080604052600436106100915760003560e01c806382fde0931161005957806382fde0931461018a5780638a9cfd55146101b5578063937e09b1146101de578063d7bb99ba14610209578063d7d1bbdb1461021357610091565b806303441006146100965780630a144391146100b25780634051ddac146100ef578063481c6a751461011e57806381d12c5814610149575b600080fd5b6100b060048036038101906100ab91906108cc565b61023c565b005b3480156100be57600080fd5b506100d960048036038101906100d49190610957565b61039d565b6040516100e6919061099f565b60405180910390f35b3480156100fb57600080fd5b506101046103bd565b6040516101159594939291906109d8565b60405180910390f35b34801561012a57600080fd5b50610133610401565b6040516101409190610a2b565b60405180910390f35b34801561015557600080fd5b50610170600480360381019061016b91906108cc565b610425565b604051610181959493929190610b00565b60405180910390f35b34801561019657600080fd5b5061019f610510565b6040516101ac9190610b5a565b60405180910390f35b3480156101c157600080fd5b506101dc60048036038101906101d79190610cd6565b610516565b005b3480156101ea57600080fd5b506101f3610606565b6040516102009190610b5a565b60405180910390f35b61021161060c565b005b34801561021f57600080fd5b5061023a600480360381019061023591906108cc565b61068d565b005b60008054906101000a900473ffffffffffffffffffffffffffffffffffffffff1673ffffffffffffffffffffffffffffffffffffffff163373ffffffffffffffffffffffffffffffffffffffff161461029457600080fd5b8060026003546102a49190610da3565b6004600083815260200190815260200160002060030154116102c557600080fd5b816004600082815260200190815260200160002060020160149054906101000a900460ff16156102f457600080fd5b60006004600085815260200190815260200160002090508060020160009054906101000a900473ffffffffffffffffffffffffffffffffffffffff1673ffffffffffffffffffffffffffffffffffffffff166108fc82600101549081150290604051600060405180830381858888f19350505050158015610379573d6000803e3d6000fd5b5060018160020160146101000a81548160ff02191690831515021790555050505050565b60026020528060005260406000206000915054906101000a900460ff1681565b60008060008060004760015460055460035460008054906101000a900473ffffffffffffffffffffffffffffffffffffffff16945094509450945094509091929394565b60008054906101000a900473ffffffffffffffffffffffffffffffffffffffff1681565b600460205280600052604060002060009150905080600001805461044890610e03565b80601f016020809104026020016040519081016040528092919081815260200182805461047490610e03565b80156104c15780601f10610496576101008083540402835291602001916104c1565b820191906000526020600020905b8154815290600101906020018083116104a457829003601f168201915b5050505050908060010154908060020160009054906101000a900473ffffffffffffffffffffffffffffffffffffffff16908060020160149054906101000a900460ff16908060030154905085565b60035481565b60008054906101000a900473ffffffffffffffffffffffffffffffffffffffff1673ffffffffffffffffffffffffffffffffffffffff163373ffffffffffffffffffffffffffffffffffffffff161461056e57600080fd5b6000600460006005600081548092919061058790610e34565b9190505581526020019081526020016000209050838160000190805190602001906105b39291906107df565b50828160010181905550818160020160006101000a81548173ffffffffffffffffffffffffffffffffffffffff021916908373ffffffffffffffffffffffffffffffffffffffff16021790555050505050565b60015481565b60015434101561061b57600080fd5b6001600260003373ffffffffffffffffffffffffffffffffffffffff1673ffffffffffffffffffffffffffffffffffffffff16815260200190815260200160002060006101000a81548160ff0219169083151502179055506003600081548092919061068690610e34565b9190505550565b600260003373ffffffffffffffffffffffffffffffffffffffff1673ffffffffffffffffffffffffffffffffffffffff16815260200190815260200160002060009054906101000a900460ff166106e357600080fd5b806004600082815260200190815260200160002060040160003373ffffffffffffffffffffffffffffffffffffffff1673ffffffffffffffffffffffffffffffffffffffff16815260200190815260200160002060009054906101000a900460ff161561074f57600080fd5b600060046000848152602001908152602001600020905060018160040160003373ffffffffffffffffffffffffffffffffffffffff1673ffffffffffffffffffffffffffffffffffffffff16815260200190815260200160002060006101000a81548160ff0219169083151502179055508060030160008154809291906107d590610e34565b9190505550505050565b8280546107eb90610e03565b90600052602060002090601f01602090048101928261080d5760008555610854565b82601f1061082657805160ff1916838001178555610854565b82800160010185558215610854579182015b82811115610853578251825591602001919060010190610838565b5b5090506108619190610865565b5090565b5b8082111561087e576000816000905550600101610866565b5090565b6000604051905090565b600080fd5b600080fd5b6000819050919050565b6108a981610896565b81146108b457600080fd5b50565b6000813590506108c6816108a0565b92915050565b6000602082840312156108e2576108e161088c565b5b60006108f0848285016108b7565b91505092915050565b600073ffffffffffffffffffffffffffffffffffffffff82169050919050565b6000610924826108f9565b9050919050565b61093481610919565b811461093f57600080fd5b50565b6000813590506109518161092b565b92915050565b60006020828403121561096d5761096c61088c565b5b600061097b84828501610942565b91505092915050565b60008115159050919050565b61099981610984565b82525050565b60006020820190506109b46000830184610990565b92915050565b6109c381610896565b82525050565b6109d281610919565b82525050565b600060a0820190506109ed60008301886109ba565b6109fa60208301876109ba565b610a0760408301866109ba565b610a1460608301856109ba565b610a2160808301846109c9565b9695505050505050565b6000602082019050610a4060008301846109c9565b92915050565b600081519050919050565b600082825260208201905092915050565b60005b83811015610a80578082015181840152602081019050610a65565b83811115610a8f576000848401525b50505050565b6000601f19601f8301169050919050565b6000610ab182610a46565b610abb8185610a51565b9350610acb818560208601610a62565b610ad481610a95565b840191505092915050565b6000610aea826108f9565b9050919050565b610afa81610adf565b82525050565b600060a0820190508181036000830152610b1a8188610aa6565b9050610b2960208301876109ba565b610b366040830186610af1565b610b436060830185610990565b610b5060808301846109ba565b9695505050505050565b6000602082019050610b6f60008301846109ba565b92915050565b600080fd5b600080fd5b7f4e487b7100000000000000000000000000000000000000000000000000000000600052604160045260246000fd5b610bb782610a95565b810181811067ffffffffffffffff82111715610bd657610bd5610b7f565b5b80604052505050565b6000610be9610882565b9050610bf58282610bae565b919050565b600067ffffffffffffffff821115610c1557610c14610b7f565b5b610c1e82610a95565b9050602081019050919050565b82818337600083830152505050565b6000610c4d610c4884610bfa565b610bdf565b905082815260208101848484011115610c6957610c68610b7a565b5b610c74848285610c2b565b509392505050565b600082601f830112610c9157610c90610b75565b5b8135610ca1848260208601610c3a565b91505092915050565b610cb381610adf565b8114610cbe57600080fd5b50565b600081359050610cd081610caa565b92915050565b600080600060608486031215610cef57610cee61088c565b5b600084013567ffffffffffffffff811115610d0d57610d0c610891565b5b610d1986828701610c7c565b9350506020610d2a868287016108b7565b9250506040610d3b86828701610cc1565b9150509250925092565b7f4e487b7100000000000000000000000000000000000000000000000000000000600052601260045260246000fd5b7f4e487b7100000000000000000000000000000000000000000000000000000000600052601160045260246000fd5b6000610dae82610896565b9150610db983610896565b925082610dc957610dc8610d45565b5b828204905092915050565b7f4e487b7100000000000000000000000000000000000000000000000000000000600052602260045260246000fd5b60006002820490506001821680610e1b57607f821691505b602082108103610e2e57610e2d610dd4565b5b50919050565b6000610e3f82610896565b91507fffffffffffffffffffffffffffffffffffffffffffffffffffffffffffffffff8203610e7157610e70610d74565b5b60018201905091905056fea26469706673582212202749e10dc977117c3119939c9c23a05263e646459f5636660cf9ec31da08d6dd64736f6c634300080d0033",
  "immutableReferences": {},
  "source": "pragma solidity ^0.8.13;\r\n\r\ncontract CampaignFactory {\r\n    address[] public deployedContracts;\r\n\r\n    function createCampaign(uint min) external {\r\n        address campaign = address(new Campaign(min, msg.sender));\r\n        deployedContracts.push(campaign);\r\n    }\r\n\r\n    function getDeployedCampaigns() external view returns (address[] memory) {\r\n        return deployedContracts;\r\n    }\r\n}\r\n\r\ncontract Campaign {\r\n    struct Request {\r\n        string description;\r\n        uint value;\r\n        address payable recipient;\r\n        bool complete;\r\n        uint approvalCount;\r\n        mapping(address => bool) approvals;\r\n    }\r\n\r\n    address public manager;\r\n    uint public minimumContribution;\r\n\r\n    mapping(address => bool) public approvers;\r\n    uint public approversCount;\r\n\r\n    mapping(uint => Request) public requests;\r\n    uint private requestCount;\r\n\r\n    modifier meetsMinimumContribution() {\r\n        require(msg.value >= minimumContribution);\r\n        _;\r\n    }\r\n\r\n    modifier onlyManager() {\r\n        require(msg.sender == manager);\r\n        _;\r\n    }\r\n\r\n    modifier onlyApprovers() {\r\n        require(approvers[msg.sender]);\r\n        _;\r\n    }\r\n\r\n    modifier hasNotVotedYet(uint index) {\r\n        require(!requests[index].approvals[msg.sender]);\r\n        _;\r\n    }\r\n\r\n    modifier hasMajorityVote(uint index) {\r\n        require(requests[index].approvalCount > approversCount / 2);\r\n        _;\r\n    }\r\n\r\n    modifier notCompletedRequest(uint index) {\r\n        require(!requests[index].complete);\r\n        _;\r\n    }\r\n\r\n    constructor(uint min, address campaignManager) {\r\n        manager = campaignManager;\r\n        minimumContribution = min;\r\n    }\r\n\r\n    function contribute() external payable meetsMinimumContribution {\r\n        approvers[msg.sender] = true;\r\n        approversCount++;\r\n    }\r\n\r\n    function createRequest(string memory description, uint value, address payable recipient) external onlyManager {\r\n        Request storage newRequest = requests[requestCount++];\r\n        newRequest.description = description;\r\n        newRequest.value = value;\r\n        newRequest.recipient = recipient;\r\n    }\r\n\r\n    function approveRequest(uint index) external onlyApprovers hasNotVotedYet(index) {\r\n        Request storage request = requests[index];\r\n        request.approvals[msg.sender] = true;\r\n        request.approvalCount++;\r\n    }\r\n\r\n    function finalizeRequest(uint index) external payable onlyManager hasMajorityVote(index) notCompletedRequest(index) {\r\n        Request storage request = requests[index];\r\n\r\n        request.recipient.transfer(request.value);\r\n\r\n        request.complete = true;\r\n    }\r\n\r\n    function getSummary() external view returns (uint, uint, uint, uint, address) {\r\n        return (address(this).balance, minimumContribution, requestCount, approversCount, manager);\r\n    }\r\n}\r\n",
  "sourcePath": "/Users/andreistefan/IdeaProjects/personal/kickstarter-ethereum/ethereum/contracts/Campaign.sol",
  "compiler": {
    "name": "solc",
    "version": "0.8.13+commit.abaa5c0e.Emscripten.clang"
  },
  "schemaVersion": "3.4.7",
  "updatedAt": "2022-05-14T12:15:18.784Z",
  "devdoc": {
    "kind": "dev",
    "methods": {},
    "version": 1
  },
  "userdoc": {
    "kind": "user",
    "methods": {},
    "version": 1
  }
}