{
  "contractName": "CampaignFactory",
  "abi": [
    {
      "inputs": [
        {
          "internalType": "uint256",
          "name": "",
          "type": "uint256"
        }
      ],
      "name": "deployedContracts",
      "outputs": [
        {
          "internalType": "address",
          "name": "",
          "type": "address"
        }
      ],
      "stateMutability": "view",
      "type": "function",
      "constant": true
    },
    {
      "inputs": [
        {
          "internalType": "uint256",
          "name": "min",
          "type": "uint256"
        }
      ],
      "name": "createCampaign",
      "outputs": [],
      "stateMutability": "nonpayable",
      "type": "function"
    },
    {
      "inputs": [],
      "name": "getDeployedCampaigns",
      "outputs": [
        {
          "internalType": "address[]",
          "name": "",
          "type": "address[]"
        }
      ],
      "stateMutability": "view",
      "type": "function",
      "constant": true
    }
  ],
  "bytecode": "0x608060405234801561001057600080fd5b506115a8806100206000396000f3fe608060405234801561001057600080fd5b50600436106100415760003560e01c80634acb9d4f146100465780639ad1ee1014610064578063a3303a7514610094575b600080fd5b61004e6100b0565b60405161005b919061031b565b60405180910390f35b61007e60048036038101906100799190610378565b61013e565b60405161008b91906103b4565b60405180910390f35b6100ae60048036038101906100a99190610378565b61017d565b005b6060600080548060200260200160405190810160405280929190818152602001828054801561013457602002820191906000526020600020905b8160009054906101000a900473ffffffffffffffffffffffffffffffffffffffff1673ffffffffffffffffffffffffffffffffffffffff16815260200190600101908083116100ea575b5050505050905090565b6000818154811061014e57600080fd5b906000526020600020016000915054906101000a900473ffffffffffffffffffffffffffffffffffffffff1681565b6000813360405161018d9061021e565b6101989291906103de565b604051809103906000f0801580156101b4573d6000803e3d6000fd5b5090506000819080600181540180825580915050600190039060005260206000200160009091909190916101000a81548173ffffffffffffffffffffffffffffffffffffffff021916908373ffffffffffffffffffffffffffffffffffffffff1602179055505050565b61116b8061040883390190565b600081519050919050565b600082825260208201905092915050565b6000819050602082019050919050565b600073ffffffffffffffffffffffffffffffffffffffff82169050919050565b600061028282610257565b9050919050565b61029281610277565b82525050565b60006102a48383610289565b60208301905092915050565b6000602082019050919050565b60006102c88261022b565b6102d28185610236565b93506102dd83610247565b8060005b8381101561030e5781516102f58882610298565b9750610300836102b0565b9250506001810190506102e1565b5085935050505092915050565b6000602082019050818103600083015261033581846102bd565b905092915050565b600080fd5b6000819050919050565b61035581610342565b811461036057600080fd5b50565b6000813590506103728161034c565b92915050565b60006020828403121561038e5761038d61033d565b5b600061039c84828501610363565b91505092915050565b6103ae81610277565b82525050565b60006020820190506103c960008301846103a5565b92915050565b6103d881610342565b82525050565b60006040820190506103f360008301856103cf565b61040060208301846103a5565b939250505056fe60806040523480156200001157600080fd5b506040516200116b3803806200116b83398181016040528101906200003791906200012b565b806000806101000a81548173ffffffffffffffffffffffffffffffffffffffff021916908373ffffffffffffffffffffffffffffffffffffffff16021790555081600181905550505062000172565b600080fd5b6000819050919050565b620000a0816200008b565b8114620000ac57600080fd5b50565b600081519050620000c08162000095565b92915050565b600073ffffffffffffffffffffffffffffffffffffffff82169050919050565b6000620000f382620000c6565b9050919050565b6200010581620000e6565b81146200011157600080fd5b50565b6000815190506200012581620000fa565b92915050565b6000806040838503121562000145576200014462000086565b5b60006200015585828601620000af565b9250506020620001688582860162000114565b9150509250929050565b610fe980620001826000396000f3fe60806040526004361061009c5760003560e01c806381d12c581161006457806381d12c581461018c57806382fde093146101cd5780638a9cfd55146101f8578063937e09b114610221578063d7bb99ba1461024c578063d7d1bbdb146102565761009c565b806303441006146100a15780630a144391146100ca5780633410452a146101075780634051ddac14610132578063481c6a7514610161575b600080fd5b3480156100ad57600080fd5b506100c860048036038101906100c3919061097e565b61027f565b005b3480156100d657600080fd5b506100f160048036038101906100ec9190610a09565b61041a565b6040516100fe9190610a51565b60405180910390f35b34801561011357600080fd5b5061011c61043a565b6040516101299190610a7b565b60405180910390f35b34801561013e57600080fd5b50610147610447565b604051610158959493929190610aa5565b60405180910390f35b34801561016d57600080fd5b5061017661048e565b6040516101839190610af8565b60405180910390f35b34801561019857600080fd5b506101b360048036038101906101ae919061097e565b6104b2565b6040516101c4959493929190610bcd565b60405180910390f35b3480156101d957600080fd5b506101e26105ad565b6040516101ef9190610a7b565b60405180910390f35b34801561020457600080fd5b5061021f600480360381019061021a9190610d88565b6105b3565b005b34801561022d57600080fd5b5061023661069a565b6040516102439190610a7b565b60405180910390f35b6102546106a0565b005b34801561026257600080fd5b5061027d6004803603810190610278919061097e565b610721565b005b60008054906101000a900473ffffffffffffffffffffffffffffffffffffffff1673ffffffffffffffffffffffffffffffffffffffff163373ffffffffffffffffffffffffffffffffffffffff16146102d757600080fd5b80600160026003546102e99190610e55565b6102f39190610e86565b6004828154811061030757610306610edc565b5b906000526020600020906005020160030154101561032457600080fd5b816004818154811061033957610338610edc565b5b906000526020600020906005020160020160149054906101000a900460ff161561036257600080fd5b60006004848154811061037857610377610edc565b5b906000526020600020906005020190508060020160009054906101000a900473ffffffffffffffffffffffffffffffffffffffff1673ffffffffffffffffffffffffffffffffffffffff166108fc82600101549081150290604051600060405180830381858888f193505050501580156103f6573d6000803e3d6000fd5b5060018160020160146101000a81548160ff02191690831515021790555050505050565b60026020528060005260406000206000915054906101000a900460ff1681565b6000600480549050905090565b60008060008060004760015460048054905060035460008054906101000a900473ffffffffffffffffffffffffffffffffffffffff16945094509450945094509091929394565b60008054906101000a900473ffffffffffffffffffffffffffffffffffffffff1681565b600481815481106104c257600080fd5b90600052602060002090600502016000915090508060000180546104e590610f3a565b80601f016020809104026020016040519081016040528092919081815260200182805461051190610f3a565b801561055e5780601f106105335761010080835404028352916020019161055e565b820191906000526020600020905b81548152906001019060200180831161054157829003601f168201915b5050505050908060010154908060020160009054906101000a900473ffffffffffffffffffffffffffffffffffffffff16908060020160149054906101000a900460ff16908060030154905085565b60035481565b60008054906101000a900473ffffffffffffffffffffffffffffffffffffffff1673ffffffffffffffffffffffffffffffffffffffff163373ffffffffffffffffffffffffffffffffffffffff161461060b57600080fd5b60006004600181600181540180825580915050039060005260206000209060050201905083816000019080519060200190610647929190610891565b50828160010181905550818160020160006101000a81548173ffffffffffffffffffffffffffffffffffffffff021916908373ffffffffffffffffffffffffffffffffffffffff16021790555050505050565b60015481565b6001543410156106af57600080fd5b6001600260003373ffffffffffffffffffffffffffffffffffffffff1673ffffffffffffffffffffffffffffffffffffffff16815260200190815260200160002060006101000a81548160ff0219169083151502179055506003600081548092919061071a90610f6b565b9190505550565b600260003373ffffffffffffffffffffffffffffffffffffffff1673ffffffffffffffffffffffffffffffffffffffff16815260200190815260200160002060009054906101000a900460ff1661077757600080fd5b806004818154811061078c5761078b610edc565b5b906000526020600020906005020160040160003373ffffffffffffffffffffffffffffffffffffffff1673ffffffffffffffffffffffffffffffffffffffff16815260200190815260200160002060009054906101000a900460ff16156107f257600080fd5b60006004838154811061080857610807610edc565b5b9060005260206000209060050201905060018160040160003373ffffffffffffffffffffffffffffffffffffffff1673ffffffffffffffffffffffffffffffffffffffff16815260200190815260200160002060006101000a81548160ff02191690831515021790555080600301600081548092919061088790610f6b565b9190505550505050565b82805461089d90610f3a565b90600052602060002090601f0160209004810192826108bf5760008555610906565b82601f106108d857805160ff1916838001178555610906565b82800160010185558215610906579182015b828111156109055782518255916020019190600101906108ea565b5b5090506109139190610917565b5090565b5b80821115610930576000816000905550600101610918565b5090565b6000604051905090565b600080fd5b600080fd5b6000819050919050565b61095b81610948565b811461096657600080fd5b50565b60008135905061097881610952565b92915050565b6000602082840312156109945761099361093e565b5b60006109a284828501610969565b91505092915050565b600073ffffffffffffffffffffffffffffffffffffffff82169050919050565b60006109d6826109ab565b9050919050565b6109e6816109cb565b81146109f157600080fd5b50565b600081359050610a03816109dd565b92915050565b600060208284031215610a1f57610a1e61093e565b5b6000610a2d848285016109f4565b91505092915050565b60008115159050919050565b610a4b81610a36565b82525050565b6000602082019050610a666000830184610a42565b92915050565b610a7581610948565b82525050565b6000602082019050610a906000830184610a6c565b92915050565b610a9f816109cb565b82525050565b600060a082019050610aba6000830188610a6c565b610ac76020830187610a6c565b610ad46040830186610a6c565b610ae16060830185610a6c565b610aee6080830184610a96565b9695505050505050565b6000602082019050610b0d6000830184610a96565b92915050565b600081519050919050565b600082825260208201905092915050565b60005b83811015610b4d578082015181840152602081019050610b32565b83811115610b5c576000848401525b50505050565b6000601f19601f8301169050919050565b6000610b7e82610b13565b610b888185610b1e565b9350610b98818560208601610b2f565b610ba181610b62565b840191505092915050565b6000610bb7826109ab565b9050919050565b610bc781610bac565b82525050565b600060a0820190508181036000830152610be78188610b73565b9050610bf66020830187610a6c565b610c036040830186610bbe565b610c106060830185610a42565b610c1d6080830184610a6c565b9695505050505050565b600080fd5b600080fd5b7f4e487b7100000000000000000000000000000000000000000000000000000000600052604160045260246000fd5b610c6982610b62565b810181811067ffffffffffffffff82111715610c8857610c87610c31565b5b80604052505050565b6000610c9b610934565b9050610ca78282610c60565b919050565b600067ffffffffffffffff821115610cc757610cc6610c31565b5b610cd082610b62565b9050602081019050919050565b82818337600083830152505050565b6000610cff610cfa84610cac565b610c91565b905082815260208101848484011115610d1b57610d1a610c2c565b5b610d26848285610cdd565b509392505050565b600082601f830112610d4357610d42610c27565b5b8135610d53848260208601610cec565b91505092915050565b610d6581610bac565b8114610d7057600080fd5b50565b600081359050610d8281610d5c565b92915050565b600080600060608486031215610da157610da061093e565b5b600084013567ffffffffffffffff811115610dbf57610dbe610943565b5b610dcb86828701610d2e565b9350506020610ddc86828701610969565b9250506040610ded86828701610d73565b9150509250925092565b7f4e487b7100000000000000000000000000000000000000000000000000000000600052601260045260246000fd5b7f4e487b7100000000000000000000000000000000000000000000000000000000600052601160045260246000fd5b6000610e6082610948565b9150610e6b83610948565b925082610e7b57610e7a610df7565b5b828204905092915050565b6000610e9182610948565b9150610e9c83610948565b9250827fffffffffffffffffffffffffffffffffffffffffffffffffffffffffffffffff03821115610ed157610ed0610e26565b5b828201905092915050565b7f4e487b7100000000000000000000000000000000000000000000000000000000600052603260045260246000fd5b7f4e487b7100000000000000000000000000000000000000000000000000000000600052602260045260246000fd5b60006002820490506001821680610f5257607f821691505b602082108103610f6557610f64610f0b565b5b50919050565b6000610f7682610948565b91507fffffffffffffffffffffffffffffffffffffffffffffffffffffffffffffffff8203610fa857610fa7610e26565b5b60018201905091905056fea2646970667358221220e1293dabbdf8b0a66e83f54ea0f7f480c337b5de27461d84557fa7babab62fed64736f6c634300080d0033a2646970667358221220254ccd3db114b2cd198f449b013d4021fab724885b80d52f9aea32a99a23e4de64736f6c634300080d0033",
  "immutableReferences": {},
  "source": "pragma solidity ^0.8.13;\r\n\r\ncontract CampaignFactory {\r\n    address[] public deployedContracts;\r\n\r\n    function createCampaign(uint min) external {\r\n        address campaign = address(new Campaign(min, msg.sender));\r\n        deployedContracts.push(campaign);\r\n    }\r\n\r\n    function getDeployedCampaigns() external view returns (address[] memory) {\r\n        return deployedContracts;\r\n    }\r\n}\r\n\r\ncontract Campaign {\r\n    struct Request {\r\n        string description;\r\n        uint value;\r\n        address payable recipient;\r\n        bool complete;\r\n        uint approvalCount;\r\n        mapping(address => bool) approvals;\r\n    }\r\n\r\n    address public manager;\r\n    uint public minimumContribution;\r\n\r\n    mapping(address => bool) public approvers;\r\n    uint public approversCount;\r\n\r\n    Request[] public requests;\r\n\r\n    modifier meetsMinimumContribution() {\r\n        require(msg.value >= minimumContribution);\r\n        _;\r\n    }\r\n\r\n    modifier onlyManager() {\r\n        require(msg.sender == manager);\r\n        _;\r\n    }\r\n\r\n    modifier onlyApprovers() {\r\n        require(approvers[msg.sender]);\r\n        _;\r\n    }\r\n\r\n    modifier hasNotVotedYet(uint index) {\r\n        require(!requests[index].approvals[msg.sender]);\r\n        _;\r\n    }\r\n\r\n    modifier hasMajorityVote(uint index) {\r\n        require(requests[index].approvalCount >= ((approversCount / 2) + 1));\r\n        _;\r\n    }\r\n\r\n    modifier notCompletedRequest(uint index) {\r\n        require(!requests[index].complete);\r\n        _;\r\n    }\r\n\r\n    constructor(uint min, address campaignManager) {\r\n        manager = campaignManager;\r\n        minimumContribution = min;\r\n    }\r\n\r\n    function contribute() external payable meetsMinimumContribution {\r\n        approvers[msg.sender] = true;\r\n        approversCount++;\r\n    }\r\n\r\n    function createRequest(string memory description, uint value, address payable recipient) external onlyManager {\r\n        Request storage newRequest = requests.push();\r\n        newRequest.description = description;\r\n        newRequest.value = value;\r\n        newRequest.recipient = recipient;\r\n    }\r\n\r\n    function approveRequest(uint index) external onlyApprovers hasNotVotedYet(index) {\r\n        Request storage request = requests[index];\r\n        request.approvals[msg.sender] = true;\r\n        request.approvalCount++;\r\n    }\r\n\r\n    function finalizeRequest(uint index) external onlyManager hasMajorityVote(index) notCompletedRequest(index) {\r\n        Request storage request = requests[index];\r\n\r\n        request.recipient.transfer(request.value);\r\n\r\n        request.complete = true;\r\n    }\r\n\r\n    function getSummary() external view returns (uint, uint, uint, uint, address) {\r\n        return (address(this).balance, minimumContribution, requests.length, approversCount, manager);\r\n    }\r\n\r\n    function getRequestsCount() external view returns (uint) {\r\n        return requests.length;\r\n    }\r\n}\r\n",
  "sourcePath": "/Users/andreistefan/IdeaProjects/personal/kickstarter-ethereum/ethereum/contracts/Campaign.sol",
  "compiler": {
    "name": "solc",
    "version": "0.8.13+commit.abaa5c0e.Emscripten.clang"
  },
  "schemaVersion": "3.4.7",
  "updatedAt": "2022-05-15T16:11:31.451Z",
  "networkType": "ethereum",
  "devdoc": {
    "kind": "dev",
    "methods": {},
    "version": 1
  },
  "userdoc": {
    "kind": "user",
    "methods": {},
    "version": 1
  }
}