{
  "contractName": "CampaignFactory",
  "abi": [
    {
      "inputs": [
        {
          "internalType": "uint256",
          "name": "",
          "type": "uint256"
        }
      ],
      "name": "deployedContracts",
      "outputs": [
        {
          "internalType": "address",
          "name": "",
          "type": "address"
        }
      ],
      "stateMutability": "view",
      "type": "function",
      "constant": true
    },
    {
      "inputs": [
        {
          "internalType": "uint256",
          "name": "min",
          "type": "uint256"
        }
      ],
      "name": "createCampaign",
      "outputs": [],
      "stateMutability": "nonpayable",
      "type": "function"
    },
    {
      "inputs": [],
      "name": "getDeployedCampaigns",
      "outputs": [
        {
          "internalType": "address[]",
          "name": "",
          "type": "address[]"
        }
      ],
      "stateMutability": "view",
      "type": "function",
      "constant": true
    }
  ],
  "bytecode": "0x608060405234801561001057600080fd5b506113a0806100206000396000f3fe608060405234801561001057600080fd5b50600436106100415760003560e01c80634acb9d4f146100465780639ad1ee1014610064578063a3303a7514610094575b600080fd5b61004e6100b0565b60405161005b919061031b565b60405180910390f35b61007e60048036038101906100799190610378565b61013e565b60405161008b91906103b4565b60405180910390f35b6100ae60048036038101906100a99190610378565b61017d565b005b6060600080548060200260200160405190810160405280929190818152602001828054801561013457602002820191906000526020600020905b8160009054906101000a900473ffffffffffffffffffffffffffffffffffffffff1673ffffffffffffffffffffffffffffffffffffffff16815260200190600101908083116100ea575b5050505050905090565b6000818154811061014e57600080fd5b906000526020600020016000915054906101000a900473ffffffffffffffffffffffffffffffffffffffff1681565b6000813360405161018d9061021e565b6101989291906103de565b604051809103906000f0801580156101b4573d6000803e3d6000fd5b5090506000819080600181540180825580915050600190039060005260206000200160009091909190916101000a81548173ffffffffffffffffffffffffffffffffffffffff021916908373ffffffffffffffffffffffffffffffffffffffff1602179055505050565b610f638061040883390190565b600081519050919050565b600082825260208201905092915050565b6000819050602082019050919050565b600073ffffffffffffffffffffffffffffffffffffffff82169050919050565b600061028282610257565b9050919050565b61029281610277565b82525050565b60006102a48383610289565b60208301905092915050565b6000602082019050919050565b60006102c88261022b565b6102d28185610236565b93506102dd83610247565b8060005b8381101561030e5781516102f58882610298565b9750610300836102b0565b9250506001810190506102e1565b5085935050505092915050565b6000602082019050818103600083015261033581846102bd565b905092915050565b600080fd5b6000819050919050565b61035581610342565b811461036057600080fd5b50565b6000813590506103728161034c565b92915050565b60006020828403121561038e5761038d61033d565b5b600061039c84828501610363565b91505092915050565b6103ae81610277565b82525050565b60006020820190506103c960008301846103a5565b92915050565b6103d881610342565b82525050565b60006040820190506103f360008301856103cf565b61040060208301846103a5565b939250505056fe60806040523480156200001157600080fd5b5060405162000f6338038062000f6383398181016040528101906200003791906200012b565b806000806101000a81548173ffffffffffffffffffffffffffffffffffffffff021916908373ffffffffffffffffffffffffffffffffffffffff16021790555081600181905550505062000172565b600080fd5b6000819050919050565b620000a0816200008b565b8114620000ac57600080fd5b50565b600081519050620000c08162000095565b92915050565b600073ffffffffffffffffffffffffffffffffffffffff82169050919050565b6000620000f382620000c6565b9050919050565b6200010581620000e6565b81146200011157600080fd5b50565b6000815190506200012581620000fa565b92915050565b6000806040838503121562000145576200014462000086565b5b60006200015585828601620000af565b9250506020620001688582860162000114565b9150509250929050565b610de180620001826000396000f3fe6080604052600436106100865760003560e01c806382fde0931161005957806382fde093146101505780638a9cfd551461017b578063937e09b1146101a4578063d7bb99ba146101cf578063d7d1bbdb146101d957610086565b8063034410061461008b5780630a144391146100a7578063481c6a75146100e457806381d12c581461010f575b600080fd5b6100a560048036038101906100a0919061084e565b610202565b005b3480156100b357600080fd5b506100ce60048036038101906100c991906108d9565b610363565b6040516100db9190610921565b60405180910390f35b3480156100f057600080fd5b506100f9610383565b604051610106919061094b565b60405180910390f35b34801561011b57600080fd5b506101366004803603810190610131919061084e565b6103a7565b604051610147959493929190610a2f565b60405180910390f35b34801561015c57600080fd5b50610165610492565b6040516101729190610a89565b60405180910390f35b34801561018757600080fd5b506101a2600480360381019061019d9190610c05565b610498565b005b3480156101b057600080fd5b506101b9610588565b6040516101c69190610a89565b60405180910390f35b6101d761058e565b005b3480156101e557600080fd5b5061020060048036038101906101fb919061084e565b61060f565b005b60008054906101000a900473ffffffffffffffffffffffffffffffffffffffff1673ffffffffffffffffffffffffffffffffffffffff163373ffffffffffffffffffffffffffffffffffffffff161461025a57600080fd5b80600260035461026a9190610cd2565b60046000838152602001908152602001600020600301541161028b57600080fd5b816004600082815260200190815260200160002060020160149054906101000a900460ff16156102ba57600080fd5b60006004600085815260200190815260200160002090508060020160009054906101000a900473ffffffffffffffffffffffffffffffffffffffff1673ffffffffffffffffffffffffffffffffffffffff166108fc82600101549081150290604051600060405180830381858888f1935050505015801561033f573d6000803e3d6000fd5b5060018160020160146101000a81548160ff02191690831515021790555050505050565b60026020528060005260406000206000915054906101000a900460ff1681565b60008054906101000a900473ffffffffffffffffffffffffffffffffffffffff1681565b60046020528060005260406000206000915090508060000180546103ca90610d32565b80601f01602080910402602001604051908101604052809291908181526020018280546103f690610d32565b80156104435780601f1061041857610100808354040283529160200191610443565b820191906000526020600020905b81548152906001019060200180831161042657829003601f168201915b5050505050908060010154908060020160009054906101000a900473ffffffffffffffffffffffffffffffffffffffff16908060020160149054906101000a900460ff16908060030154905085565b60035481565b60008054906101000a900473ffffffffffffffffffffffffffffffffffffffff1673ffffffffffffffffffffffffffffffffffffffff163373ffffffffffffffffffffffffffffffffffffffff16146104f057600080fd5b6000600460006005600081548092919061050990610d63565b919050558152602001908152602001600020905083816000019080519060200190610535929190610761565b50828160010181905550818160020160006101000a81548173ffffffffffffffffffffffffffffffffffffffff021916908373ffffffffffffffffffffffffffffffffffffffff16021790555050505050565b60015481565b60015434101561059d57600080fd5b6001600260003373ffffffffffffffffffffffffffffffffffffffff1673ffffffffffffffffffffffffffffffffffffffff16815260200190815260200160002060006101000a81548160ff0219169083151502179055506003600081548092919061060890610d63565b9190505550565b600260003373ffffffffffffffffffffffffffffffffffffffff1673ffffffffffffffffffffffffffffffffffffffff16815260200190815260200160002060009054906101000a900460ff1661066557600080fd5b806004600082815260200190815260200160002060040160003373ffffffffffffffffffffffffffffffffffffffff1673ffffffffffffffffffffffffffffffffffffffff16815260200190815260200160002060009054906101000a900460ff16156106d157600080fd5b600060046000848152602001908152602001600020905060018160040160003373ffffffffffffffffffffffffffffffffffffffff1673ffffffffffffffffffffffffffffffffffffffff16815260200190815260200160002060006101000a81548160ff02191690831515021790555080600301600081548092919061075790610d63565b9190505550505050565b82805461076d90610d32565b90600052602060002090601f01602090048101928261078f57600085556107d6565b82601f106107a857805160ff19168380011785556107d6565b828001600101855582156107d6579182015b828111156107d55782518255916020019190600101906107ba565b5b5090506107e391906107e7565b5090565b5b808211156108005760008160009055506001016107e8565b5090565b6000604051905090565b600080fd5b600080fd5b6000819050919050565b61082b81610818565b811461083657600080fd5b50565b60008135905061084881610822565b92915050565b6000602082840312156108645761086361080e565b5b600061087284828501610839565b91505092915050565b600073ffffffffffffffffffffffffffffffffffffffff82169050919050565b60006108a68261087b565b9050919050565b6108b68161089b565b81146108c157600080fd5b50565b6000813590506108d3816108ad565b92915050565b6000602082840312156108ef576108ee61080e565b5b60006108fd848285016108c4565b91505092915050565b60008115159050919050565b61091b81610906565b82525050565b60006020820190506109366000830184610912565b92915050565b6109458161089b565b82525050565b6000602082019050610960600083018461093c565b92915050565b600081519050919050565b600082825260208201905092915050565b60005b838110156109a0578082015181840152602081019050610985565b838111156109af576000848401525b50505050565b6000601f19601f8301169050919050565b60006109d182610966565b6109db8185610971565b93506109eb818560208601610982565b6109f4816109b5565b840191505092915050565b610a0881610818565b82525050565b6000610a198261087b565b9050919050565b610a2981610a0e565b82525050565b600060a0820190508181036000830152610a4981886109c6565b9050610a5860208301876109ff565b610a656040830186610a20565b610a726060830185610912565b610a7f60808301846109ff565b9695505050505050565b6000602082019050610a9e60008301846109ff565b92915050565b600080fd5b600080fd5b7f4e487b7100000000000000000000000000000000000000000000000000000000600052604160045260246000fd5b610ae6826109b5565b810181811067ffffffffffffffff82111715610b0557610b04610aae565b5b80604052505050565b6000610b18610804565b9050610b248282610add565b919050565b600067ffffffffffffffff821115610b4457610b43610aae565b5b610b4d826109b5565b9050602081019050919050565b82818337600083830152505050565b6000610b7c610b7784610b29565b610b0e565b905082815260208101848484011115610b9857610b97610aa9565b5b610ba3848285610b5a565b509392505050565b600082601f830112610bc057610bbf610aa4565b5b8135610bd0848260208601610b69565b91505092915050565b610be281610a0e565b8114610bed57600080fd5b50565b600081359050610bff81610bd9565b92915050565b600080600060608486031215610c1e57610c1d61080e565b5b600084013567ffffffffffffffff811115610c3c57610c3b610813565b5b610c4886828701610bab565b9350506020610c5986828701610839565b9250506040610c6a86828701610bf0565b9150509250925092565b7f4e487b7100000000000000000000000000000000000000000000000000000000600052601260045260246000fd5b7f4e487b7100000000000000000000000000000000000000000000000000000000600052601160045260246000fd5b6000610cdd82610818565b9150610ce883610818565b925082610cf857610cf7610c74565b5b828204905092915050565b7f4e487b7100000000000000000000000000000000000000000000000000000000600052602260045260246000fd5b60006002820490506001821680610d4a57607f821691505b602082108103610d5d57610d5c610d03565b5b50919050565b6000610d6e82610818565b91507fffffffffffffffffffffffffffffffffffffffffffffffffffffffffffffffff8203610da057610d9f610ca3565b5b60018201905091905056fea2646970667358221220e7d4b3d22338335c0f054bd0534cc46c845b465fb032f7251b95db8c6f79787e64736f6c634300080d0033a26469706673582212207f10c12bac0e77744e7ee66059ad2754965e79410c4b7b3b34c235055589c1f764736f6c634300080d0033",
  "immutableReferences": {},
  "source": "pragma solidity ^0.8.13;\r\n\r\ncontract CampaignFactory {\r\n    address[] public deployedContracts;\r\n\r\n    function createCampaign(uint min) external {\r\n        address campaign = address(new Campaign(min, msg.sender));\r\n        deployedContracts.push(campaign);\r\n    }\r\n\r\n    function getDeployedCampaigns() external view returns (address[] memory) {\r\n        return deployedContracts;\r\n    }\r\n}\r\n\r\ncontract Campaign {\r\n    struct Request {\r\n        string description;\r\n        uint value;\r\n        address payable recipient;\r\n        bool complete;\r\n        uint approvalCount;\r\n        mapping(address => bool) approvals;\r\n    }\r\n\r\n    address public manager;\r\n    uint public minimumContribution;\r\n\r\n    mapping(address => bool) public approvers;\r\n    uint public approversCount;\r\n\r\n    mapping(uint => Request) public requests;\r\n    uint private requestCount;\r\n\r\n    modifier meetsMinimumContribution() {\r\n        require(msg.value >= minimumContribution);\r\n        _;\r\n    }\r\n\r\n    modifier onlyManager() {\r\n        require(msg.sender == manager);\r\n        _;\r\n    }\r\n\r\n    modifier onlyApprovers() {\r\n        require(approvers[msg.sender]);\r\n        _;\r\n    }\r\n\r\n    modifier hasNotVotedYet(uint index) {\r\n        require(!requests[index].approvals[msg.sender]);\r\n        _;\r\n    }\r\n\r\n    modifier hasMajorityVote(uint index) {\r\n        require(requests[index].approvalCount > approversCount / 2);\r\n        _;\r\n    }\r\n\r\n    modifier notCompletedRequest(uint index) {\r\n        require(!requests[index].complete);\r\n        _;\r\n    }\r\n\r\n    constructor(uint min, address campaignManager) {\r\n        manager = campaignManager;\r\n        minimumContribution = min;\r\n    }\r\n\r\n    function contribute() external payable meetsMinimumContribution {\r\n        approvers[msg.sender] = true;\r\n        approversCount++;\r\n    }\r\n\r\n    function createRequest(string memory description, uint value, address payable recipient) external onlyManager {\r\n        Request storage newRequest = requests[requestCount++];\r\n        newRequest.description = description;\r\n        newRequest.value = value;\r\n        newRequest.recipient = recipient;\r\n    }\r\n\r\n    function approveRequest(uint index) external onlyApprovers hasNotVotedYet(index) {\r\n        Request storage request = requests[index];\r\n        request.approvals[msg.sender] = true;\r\n        request.approvalCount++;\r\n    }\r\n\r\n    function finalizeRequest(uint index) external payable onlyManager hasMajorityVote(index) notCompletedRequest(index) {\r\n        Request storage request = requests[index];\r\n\r\n        request.recipient.transfer(request.value);\r\n\r\n        request.complete = true;\r\n    }\r\n}\r\n",
  "sourcePath": "/Users/andreistefan/IdeaProjects/personal/kickstarter-ethereum/ethereum/contracts/Campaign.sol",
  "compiler": {
    "name": "solc",
    "version": "0.8.13+commit.abaa5c0e.Emscripten.clang"
  },
  "schemaVersion": "3.4.7",
  "updatedAt": "2022-05-11T16:53:46.380Z",
  "networkType": "ethereum",
  "devdoc": {
    "kind": "dev",
    "methods": {},
    "version": 1
  },
  "userdoc": {
    "kind": "user",
    "methods": {},
    "version": 1
  }
}